:100000000C948B120C94B3120C94B3120C94B31284
:100010000C94B3120C94B3120C94B3120C94B3124C
:100020000C94B3120C94B3120C94481D0C94B71D8D
:100030000C94B3120C94B3120C94B3120C94B3122C
:100040000C94B3120C94B3120C94B3120C94B3121C
:100050000C94B3120C94B3120C94B3120C94E91FC9
:100060000C94B3120C94B3120C94B3120C94B312FC
:100070000C94B3120C94B3120C94B3120C94B312EC
:100080000C9433200C94B3120C94B3120C94B3124E
:100090000C94B3120C94B3120C94B3120C94B312CC
:1000A0000C94B3120C94B3120C94B31205A84CCD5B
:1000B000B2D44EB93836A9020C50B9918688083CA2
:1000C000A6AAAA2ABE000000803F31313131313169
:1000D000313100313030303030303100313030307B
:1000E000303030310031303031313030310031306A
:1000F0003230333030310031303030303030310058
:100100003130303030303031003131313131313116
:100110003100313131313131313100313030303035
:100120003030310031303032303030310031303029
:100130003033303031003130303030303031003118
:1001400030303233303031003130303030303031D7
:1001500000313131313131313100313131313131F1
:1001600031310031303030303030310031303032E8
:1001700033303031003130303030303031003130D8
:1001800030323330303100313030323330303100C2
:100190003130303030303031003131313131313186
:1001A00031003131313131313131003130303233A0
:1001B0003030310031303032333030310031303096
:1001C0003030303031003130303233303031003186
:1001D0003030303030303100313030323330303147
:1001E0000031313131313131310000000000003E49
:1001F0005B4F5B3E3E6B4F6B3E1C3E7C3E1C183C97
:100200007E3C181C577D571C1C5E7F5E1C00183CF2
:100210001800FFE7C3E7FF0018241800FFE7DBE73B
:10022000FF30483A060E2629792926407F05050722
:10023000407F05253F5A3CE73C5A7F3E1C1C08087E
:100240001C1C3E7F14227F22145F5F005F5F060943
:100250007F017F006689956A606060606094A2FF9C
:10026000A29408047E040810207E201008082A1C8E
:1002700008081C2A08081E101010100C1E0C1E0C5A
:1002800030383E3830060E3E0E06000000000000FA
:10029000005F00000007000700147F147F14242A69
:1002A0007F2A12231308646236495620500008073B
:1002B0000300001C2241000041221C002A1C7F1C5C
:1002C0002A08083E0808008070300008080808085E
:1002D000000060600020100804023E5149453E00C5
:1002E000427F400072494949462141494D33181423
:1002F000127F1027454545393C4A49493141211172
:1003000009073649494936464949291E0000140063
:100310000000403400000008142241141414141486
:10032000004122140802015909063E415D594E7CE4
:100330001211127C7F494949363E414141227F4199
:1003400041413E7F494949417F090909013E4141F7
:1003500051737F0808087F00417F41002040413FE2
:10036000017F081422417F404040407F021C027FF1
:100370007F0408107F3E4141413E7F090909063E46
:100380004151215E7F091929462649494932030115
:100390007F01033F4040403F1F2040201F3F403827
:1003A000403F631408146303047804036159494D02
:1003B00043007F4141410204081020004141417F38
:1003C00004020102044040404040000307080020AE
:1003D000545478407F2844443838444444283844AE
:1003E00044287F385454541800087E090218A4A4E5
:1003F0009C787F0804047800447D40002040403D04
:10040000007F1028440000417F40007C047804787D
:100410007C080404783844444438FC182424181810
:10042000242418FC7C08040408485454542404046C
:100430003F44243C4040207C1C2040201C3C403059
:10044000403C44281028444C9090907C4464544C88
:1004500044000836410000007700000041360800E3
:1004600002010204023C2623263C1EA1A161123A8D
:100470004040207A385454555921555579412154DA
:10048000547841215554784020545579400C1E52DF
:100490007212395555555939545454593955545483
:1004A000580000457C410002457D420001457C40EA
:1004B000F0292429F0F0282528F07C545545002007
:1004C00054547C547C0A097F4932494949323248A4
:1004D000484832324A4848303A4141217A3A42400B
:1004E0002078009DA0A07D39444444393D404040DF
:1004F0003D3C24FF2424487E4943662B2FFC2F2BB0
:10050000FF0929F620C0887E090320545479410050
:1005100000447D413048484A32384040227A007ACF
:100520000A0A727D0D19317D2629292F28262929AD
:10053000292630484D4020380808080808080808CF
:10054000382F10C8ACBA2F102834FA00007B0000F6
:1005500008142A142222142A14089500220095AAAD
:10056000005500AAAA55AA55AA000000FF001010C5
:1005700010FF00141414FF001010FF00FF1010F003
:1005800010F0141414FC001414F700FF0000FF0016
:10059000FF1414F404FC141417101F10101F101F64
:1005A0001414141F00101010F0000000001F101091
:1005B00010101F10101010F010000000FF1010108D
:1005C000101010101010FF10000000FF140000FFAA
:1005D00000FF00001F10170000FC04F41414171093
:1005E000171414F404F40000FF00F7141414141486
:1005F0001414F700F7141414171410101F101F14FC
:100600001414F4141010F010F000001F101F00005C
:10061000001F14000000FC140000F010F01010FF88
:1006200010FF141414FF141010101F00000000F02D
:1006300010FFFFFFFFFFF0F0F0F0F0FFFFFF000002
:10064000000000FFFF0F0F0F0F0F38444438447CA9
:100650002A2A3E147E02020606027E027E026355AC
:100660004941633844443C04407E201E2006027EFB
:10067000020299A5E7A5991C2A492A1C4C7201720D
:100680004C304A4D4D303048784830BC625A463D77
:100690003E494949007E0101017E2A2A2A2A2A442C
:1006A000445F444440514A444040444A5140000061
:1006B000FF0103E080FF000008086B6B083612366C
:1006C0002436060F090F060000181800000010104D
:1006D000003040FF0101001F01011E00191D17120B
:1006E000003C3C3C3C0000000000F0F89C8E8783FE
:1006F000878E9CF8F00000FEFF0303030303070E40
:10070000FCF80000FEFF0303030303070EFCF800E0
:1007100000FFFF00000000000000FFFF0000FEFFE0
:100720008383838383C7EE7C380000F8FC0E0703C5
:100730000303070EFCF800003F7FE0C08080C0E0AC
:100740007F3FFFFF01010101010101FFFF0000FFE9
:10075000FF0C0C0C0C1C3E77E3C100007FFFC0C0F7
:10076000C0C0C0E0703F1F00001F3F70E0C0C0C0AD
:10077000E0703F1F00007FFFC1C1C1C1C1E3773EF0
:100780001C00001F3F70E0C0C0C0E0703F1F0000B1
:1007900000000001FFFF01000000D5F08D14A1C88A
:1007A00081CFD9F1AF2000524553455420544F20FA
:1007B000504C415920414741494E00474F4F44203A
:1007C00042594500413D4D454E550047414D45215B
:1007D000005448495320414D415A494E4700594F12
:1007E0005520434F4D504C4554454400434F4E47D0
:1007F000524154554C4154494F4E532100413D4EB6
:1008000045585420423D4D454E5500484F4E4559A0
:100810002042414447455200804000000000000053
:1008200000000000000000000000000000000000C8
:1008300000000000000000000000000000000000B8
:1008400000000000000000000000000000000000A8
:100850000000000000000000000000000000000098
:100860000000000000000000000000000000000088
:100870000000000000000000000000000000000078
:100880000000000000000000000000000000000068
:100890000000000000000000000000000000000058
:1008A0000000000000000000000000000000000048
:1008B0000000000000000000000000000000000038
:1008C0000000000000000000000000000000000028
:1008D0000000000000000000000000000000000018
:1008E000000000000000000000000000000000FE0A
:1008F000000000000000000000000000000007FFF2
:10090000C0000000000000000000000000001FF018
:100910000000000000000000000000000000FFC018
:100920000000000000000000000000000003FFC005
:10093000180000000000000000000000001FFFC3BE
:10094000FC0000000000000000000000007FFFC766
:10095000FE0400000000000000000000003FFFC790
:10096000FF830000000000000000000000FFFFC740
:10097000FFE08000000000000000000003FFFFC750
:10098000FFF86000000000000000000007FFFFE328
:10099000FFFE300000000000000000000FFFFFF32A
:1009A000FFF38800000000000000000003FFFFFFCD
:1009B000FFF0C80000000000000000000FFFFFFF74
:1009C000FFF8240000000000000000001FFFFF806F
:1009D000007E120000000000000000003FFFFC004D
:1009E000000FFE0000000000000000007FFFF0008C
:1009F0000003FF000000000000000000FFFFC00037
:100A00000000FF8000000000000000013FFF8000A8
:100A100000003FC000000000000000007FFE00005A
:100A2000000007E00000000000000000FFFC3E00A6
:100A3000000001F80000000000000001FFFFF000CE
:100A4000000003CE0000000000000003FFFFC00014
:100A50000000000F0000000000000003FFFFFE0088
:100A60000000000F000000000000000701FFF80078
:100A7000007F800E00000000000000040007FFFE61
:100A800001E1FC780000000000000000FFF8FFFF1B
:100A90000100BE80000000000000000FFFFF3FFFCC
:100AA00083000900000000000000001FFFFFCFFFCF
:100AB000C3000200000000000000003FFFFFE7F15C
:100AC000C2000800000000000000003F800FFBE0B3
:100AD000E000100000000000000000780000FDE0D1
:100AE00060000000000000000000004000003EC068
:100AF000310000000000000000000000000007407E
:100B000031000000000000000000000000000100B3
:100B1000188000000000000000000000000000003D
:100B200018C00000000000000000000000000000ED
:100B3000064000000000000000000000000000006F
:100B400001E00000000000000000000000000000C4
:100B50000000000000000000000000000000000095
:100B60000000000000000000000000000000000085
:100B70000000000000000000000000000000000075
:100B80000000000000000000000000000000000065
:100B90000000000000000000000000000000000055
:100BA0000000000000000000000000000000000045
:100BB0000000000000000000000000000000000035
:100BC0000000000000000000000000000000000025
:100BD0000000000000000000000000000000000015
:100BE0000000000000000000000000000000000005
:100BF00000000000000000000000000000000000F5
:100C000000000000000000000000000000000000E4
:100C100000000000000000000000413D4E45585417
:100C200020423D4D454E5500414C504143410080CE
:100C30004000000000000000000000000000000074
:100C400000000000000001800000018000000000A2
:100C500000000000000002800000014000000000D1
:100C600000000000000004C000000220000000009E
:100C7000000000000000044000000220000000000E
:100C80000000000000000D400000032000000000F4
:100C90000000000000000940000002900000000079
:100CA00000000000000009600000051000000000C6
:100CB00000000000000008A0000005100000000077
:100CC0000000000000000890000009300000000053
:100CD00000000000000004481FF012200000000087
:100CE0000000000000000445E85FA62000000000AE
:100CF00000000000000004270010E4600000000075
:100D0000000000000000062C00003C400000000035
:100D10000000000000000218000018400000000061
:100D20000000000000000200000000C00000000001
:100D30000000000000000100000000800000000032
:100D40000000000000000100000000800000000022
:100D50000000000000000100000001800000000011
:100D60000000000000000100000000800000000002
:100D70000000000000000200000000C000000000B1
:100D80000000000000000300000000C000000000A0
:100D900000000000000003000000008000000000D0
:100DA0000000000000000300000000C00000000080
:100DB00000000000000003000000008000000000B0
:100DC000000000000000030000000180000000009F
:100DD000000000000000030001800180000000000E
:100DE00000000000000000800EF001000000000084
:100DF000000000000000007F9019FF0000000000CC
:100E0000000000000000005E600E7A00000000009C
:100E1000000000000000005E2006720000000000DC
:100E2000000000000000004040060200000000003A
:100E3000000000000000004040020200000000002E
:100E4000000000000000004040020200000000001E
:100E50000000000000000040CC3002000000000054
:100E6000000000000000008083C1020000000000BC
:100E700000000000000000808181020000000000EE
:100E8000000000000000008081010200000000005E
:100E9000000000000000008040020200000000008E
:100EA000000000000000008045A2020000000000D9
:100EB000000000000000004043C6020000000000E7
:100EC00000000000000000402004020000000000BC
:100ED000000000000000004018180600000000009C
:100EE000000000000000006007E0040000000000B7
:100EF00000000000000000200000040000000000CE
:100F000000000000000000200000080000000000B9
:100F10000000000000000030000008000000000099
:100F200000000000000000100000080000000000A9
:100F30000000000000000030000008000000000079
:100F40000000000000000030000008000000000069
:100F50000000000000000030000008000000000059
:100F60000000000000000020000008000000000059
:100F70000000000000000020000008000000000049
:100F80000000000000000020000008000000000039
:100F90000000000000000020000008000000000029
:100FA0000000000000000020000008000000000019
:100FB0000000000000000020000008000000000009
:100FC00000000000000000200000080000000000F9
:100FD00000000000000000200000040000000000ED
:100FE00000000000000000200000040000000000DD
:100FF00000000000000000200000040000000000CD
:1010000000000000000000000000000000000000E0
:1010100000000000000000000000000000000000D0
:1010200000000000000000000000000000000000C0
:1010300000413D4E45585420423D4D454E550053CC
:10104000414C414D414E444552008040000000005B
:101050000000000000000000000000000000000090
:101060000000000000000000000000000000000080
:101070000000000000000000000000000000000070
:101080000000000000000000000000000000000060
:101090000000000000000000000000000000000050
:1010A0000000000000000000000000000000000040
:1010B0000000000000000000000000000000000030
:1010C0000000000000080000000000000000000018
:1010D00000000000000C0003F80000000000000009
:1010E00000000000000C800FFE0000000000000067
:1010F0000000000000CDC01F87E0000000000000DD
:1011000000000000006D803F33F000000000000090
:1011100000000000001E007071F8000000000000D8
:1011200000000000001F80407BF80000000000006D
:1011300000000000001DC0033BE0000000000000B4
:10114000000000000018C00F8FC800000000000061
:10115000000000000038013FFF30000000000000E8
:10116000000000000038013FF8E00000000000002F
:10117000000000000078007F3F80000000000000B9
:101180000000007F003F02FF3F0000000000000061
:1011900000000780F81F84FFFC0000000000000032
:1011A0000000381E0707CDFFF0000000000000001F
:1011B0000000E71FC1C3F9FFE000000000000000CD
:1011C0000003DE1F8E3BF3FF000000000000000064
:1011D00001CFFE1F0F8FCFFC0000000000000000B9
:1011E0000F8FFC3E0FC00FFC00000000000000004D
:1011F0009F0FFC7E0F8FCFF800000000000000035F
:101200001F1FFCFE1F8787F8000000000000000F72
:101210001F1FFFFE1F0787F0000000000000003FB7
:101220001FFFFFFE7F0F8FB0000000000000001FB7
:10123000FFFFDFFFFF0FCF70000000000000000F76
:10124000E003E7FFFF1FDEE0000000000000010FE9
:101250000000F1FFFF3FF9C0000000000000039C08
:101260000000FCFFFFFFF3C000000000000007F0DB
:1012700000007E7FFFFFEF800000000000000FE015
:1012800000003F7FFFFFCF000000000000000FC004
:1012900000000F9FFFFFDE000000000000001F8025
:1012A00000000783FFFF9C000000000000001F00FB
:1012B000000007807FFE38000000000000001F00D3
:1012C0000000078003E0380000000000000002007A
:1012D00000000F00000038000000000000000200C5
:1012E000000C3E0000003C00000000000000020076
:1012F000000FFC0000003C000000000000000E0099
:101300000001F00000001E180000000000003E0078
:101310000003E00000000F380000000000001E0085
:10132000001CE000000007C00000000000001E00DC
:101330000009B000000003E00000000000001E00F3
:1013400000013000000001FC0000000000000F0060
:1013500000033000000001CC000000000000078006
:10136000000000000000036000000000000007C053
:10137000000000000000066000000000000003B054
:10138000000000000000002000000000000000EC51
:101390000000000000000000000000000000007BD2
:1013A0008000000000000000000000000000001F9E
:1013B0008E0000000000000000000000000000039C
:1013C000FFC000000000000000000000000000005E
:1013D000000000000000000000000000000000000D
:1013E00000000000000000000000000000000000FD
:1013F00000000000000000000000000000000000ED
:1014000000000000000000000000000000000000DC
:1014100000000000000000000000000000000000CC
:1014200000000000000000000000000000000000BC
:1014300000000000000000000000000000000000AC
:10144000000000000000000000000000413D4E458B
:10145000585420423D4D454E55004341505942415C
:101460005241008040000000000000000000000029
:10147000000000000000000000000000000000006C
:10148000000000000000000000000000000000005C
:10149000000000000000000000000000000000004C
:1014A000000000000000000000000000000000003C
:1014B000000000000000000000000000000000002C
:1014C000000000000000000000000000000000001C
:1014D000000000000000000000000000000000000C
:1014E00000000000000000000000000000000000FC
:1014F00000000000000000000000000000000000EC
:10150000000000000000000000000061C0000000BA
:101510000000000000000000000000FE400000008D
:101520000000000000000000000007842000000010
:10153000000000000000000000001C00200000006F
:10154000000000000000000000006000300000000B
:101550000000000000000000000180015807FF00AB
:10156000000000000000000000020060043C01C018
:101570000000000000000000000400E003E0003074
:101580000000000000000000000800000080000CC7
:101590000000000000000000001000000000000635
:1015A0000000000000000000002000000000000318
:1015B0000000000000000000002300000000000008
:1015C000800000000000000000200000000000007B
:1015D000C00000000000000000000000000000004B
:1015E000600000000000000000100000000000008B
:1015F00020000000000000000010000000000000BB
:10160000300000000000000000100000000000009A
:101610001000000000000000001C0000000000009E
:101620001800000000000000000C00000000000096
:10163000080000000000000000070000000000009B
:1016400008000000000000000003FE000000000091
:1016500008000000000000000000C30000000000BF
:101660000C0000000000000000000100000000006D
:1016700004000000000000000000008000000000E6
:1016800004000000000000000000008000000000D6
:1016900004000000000000000000008000000000C6
:1016A0000400000000000000000000C00000000076
:1016B0000400000000000000000000C00000000066
:1016C0000C000000000000000000006000000000AE
:1016D00008000000000000000000002000000000E2
:1016E00008000000000000000000003000000000C2
:1016F00008000000000000000000001800000000CA
:1017000018000000000000000000000C00000000B5
:1017100010000000000000000000000600000000B3
:1017200010000000000000000000000480000080A5
:1017300020000000000000000000000460000080A5
:101740002000000000000000000000021C04000057
:101750002000000000000000000000020C08004013
:10176000200000000000000000000002141F83E0C1
:101770002000000000000000000000021210FC30F9
:10178000200000000000000000000002321010786D
:10179000200000000000000000000006241060701F
:1017A00040000000000000000000000C243180E038
:1017B0004000000000000000000000182833CF8027
:1017C00080000000000000000000003FF031FDDB61
:1017D000000000000000000000000004DFE00074D2
:1017E00000000000000000000000000000000000F9
:1017F00000000000000000000000000000000000E9
:1018000000000000000000000000000000000000D8
:1018100000000000000000000000000000000000C8
:1018200000000000000000000000000000000000B8
:1018300000000000000000000000000000000000A8
:101840000000000000000000000000000000000098
:101850000000000000000000000000000000000088
:101860000000000000413D4D454E5520423D455889
:1018700049540047414D4520434F4D504C45544538
:1018800000434F4E47524154532100413D4E45586D
:101890005420423D4D454E5500434F4D504C45540C
:1018A0004521004C4556454C00413D434C4F534566
:1018B000205649455700413D434C4F5345204D412B
:1018C00050004D415000413D535441525420423D3F
:1018D0004558495400202048415244003E20484188
:1018E00052440020204D454449554D003E204D4571
:1018F0004449554D00202045415359003E20454163
:1019000053590055502B413A207075736820626F0F
:1019100078004C4546542F52494748543A20747534
:10192000726E0055502F444F574E3A206D6F7665BA
:1019300000424F582050555A5A4C4500B801F40106
:10194000B801F401B801F4015D015E010B029600DB
:10195000B801F4015D015E010B029600B801BC0202
:101960009302F4019302F4019302F401BA025E01BE
:101970000B0296009F01F4015D015E010B029600CF
:10198000B801BC027003F401B8015E01B801960011
:101990007003F4013E035E0110039600E40296001A
:1019A000BA029600E4029001D201C8006E022C0136
:1019B0004B0296002A0296000B029600EE0196005A
:1019C0000B029001008041202D204E4558540045C7
:1019D0004153592063616E207075736820696E20D1
:1019E0003244004D454449554D2063616E2076696F
:1019F0006577203244004841524420756E75736506
:101A0000203244206D617000426F74746F6D20410C
:101A1000202D20696E2F6F75742032440044494692
:101A2000464943554C5459204C4556454C5300416A
:101A3000202D204E45585400696E746F20746865DF
:101A400020746172676574005075736820746865EE
:101A500020626F78657300474F414C204F46204706
:101A6000414D450041202D204E4558540055502BE6
:101A700041202D207075736820626F786573004C6B
:101A80004546542F5249474854202D207475726E94
:101A90000055502F444F574E202D20666F72206DF9
:101AA0006F766500627574746F6E733A00484F57B5
:101AB00020544F20504C41590041202D204E455874
:101AC000540057656C636F6D6520596F75206F6E9C
:101AD0002063616D707573005765206172652054D5
:101AE0007269626573008040000000000000000021
:101AF00000000000000000000000000000000000E6
:101B000000000000000000000000000000000000D5
:101B10000000000000000000000000400000000085
:101B200000000FA000000000000030800000000056
:101B30000001C0B000000000000204387FC00000B7
:101B400000080C07C070000000100001000C00002D
:101B50000010000000060000000600000003000066
:101B600000100000000100000010000000008000D4
:101B7000001000000000C00000180000000040003D
:101B8000000C0000000040000007E00000006000C2
:101B900000001000000020000000180000002000DD
:101BA00000000800000020000000080000002000E5
:101BB00000000800000020000000040000004000B9
:101BC000000006000000400000000300000040008C
:101BD0000000018000008000000001602000800003
:101BE0000000011820008000000000987FA0800005
:101BF000000000949E308000000001148C31000031
:101C00000000031898610000000007389FE2000000
:101C1000000001FF807C00000000000000000000C8
:101C200000000000000000000000000000000000B4
:101C300000000000000000000000000000000000A4
:101C4000804000000000000000000180000E000045
:101C5000000340000A00000002C0000D0000000266
:101C6000C0000D00000002E0001D00000002500056
:101C7000390000000257FFAB0000000128045200A9
:101C800000000130003200000001000002000000EE
:101C9000018000040000000080000400000001003A
:101CA0000002000000010000060000000100000624
:101CB000000000018000060000000180780600009E
:101CC0000000FC84FC000000007B03F80000000022
:101CD000410208000000004201080000000042CD5F
:101CE00008000000004231080000000042310800F6
:101CF00000000042210800000000437B08000000B3
:101D0000004102080000000040FC18000000002014
:101D10000010000000002000100000000020001053
:101D20000000000020001000000000200010000053
:101D30000000200010000000002000100000000043
:101D40002000100000000020001000000000200013
:101D50001000000000200010000000000000000043
:101D600000000000000000008040000000000000B3
:101D70000000000000000000000000000000000063
:101D80000000000000000000000000000000000053
:101D90000000000000000000000000000000000043
:101DA00000000000000000000000000000780000BB
:101DB000000000000003E0000000000000000FC170
:101DC000000000000000007FCF8000000000000045
:101DD0007FDFE0000000000001FFCFF900000000FD
:101DE0000001FFFFF2800000000003FFF8F1000097
:101DF00000000007FF000FC0000000000FFC000300
:101E0000E00000000007F00000F0000000000FEF0D
:101E100000003C000000001FF800000E0000000061
:101E200031FE003E040000000007CFF841F0000042
:101E300000007FFBFC0000000000007FFEE6008049
:101E40000000000080074200000000000000018147
:101E50004000000000000000010000000000000041
:101E60000000600000000000000000000000000012
:101E70000000000000000000000000000000000062
:101E80000000000000000000000000000000000052
:101E90000000000000000000000000000000000042
:101EA000000000000061340000000000000000009D
:101EB0000000000000000000000000000000000022
:101EC0000000000000000000000000000000000012
:101ED0000000000000000000000000000000000002
:101EE0000000000000000000000C00F800000000EE
:101EF00000000000002503C60000000000000000F4
:101F0000001E07B78000000000000000000E003730
:101F1000C000000000000000000D01CF0000000024
:101F200000000000001803FC80000000000000001A
:101F3000001807FB0000000000000001DC1E0FBCC1
:101F4000000000000000000C01872FF800000000D6
:101F50000000001E7C67DFE000000000000000FEC3
:101F600078CFBF800000000000003CFE71E73F001A
:101F70000000000000013CFEF1E73E000000000010
:101F800000073CFFF3C73E00000000000007FFFF12
:101F9000FFCF7C00000000000003803BFFDFEC006F
:101FA000000000000036001CFFFFD8000000000009
:101FB0000078000EFFFFB0000000000000F00007F6
:101FC0003FFF60000000000000E000030FFE400043
:101FD0000000000000E000070000C000000000005A
:101FE0000000008E0000E000000000000000007C07
:101FF000000060000000000000C000780000360013
:102000000000000000E000A800001C00000000002C
:1020100000E0002800001F00000000000060002019
:10202000000010000000000000300000000014005C
:102030000000000000180000000000000000000088
:10204000000EC00000000000000000000003FC00C3
:102050000000000000000000000000000000000080
:102060000000000000000000000000000000000070
:102070000000000000000000000000000000000060
:102080000000000000000000000000000000000050
:1020900000000041202D204E455854008040000093
:1020A0000000000000000000000000000000000030
:1020B0000000000000000000000000000000FFF829
:1020C00003E0000000000000000000000000FFF836
:1020D00003E0000000000000000000000000FFF826
:1020E00003E0000000000000000000000000FFF816
:1020F00003E0000000000000000000000000FFF806
:1021000003E00000000000000000000000000007E5
:10211000C01F0000000000000000000000000007D9
:10212000C01F0000000000000000000000000007C9
:10213000C01F0000000000000000000000000007B9
:10214000C01F0000000000000000000000000007A9
:10215000C01F00000000000000000000000007F8A1
:10216000001F00000000000000000000000007F851
:10217000001F00000000000000000000000007F841
:10218000001F00000000000000000000000007F831
:10219000001F00000000000000000000000007F821
:1021A000001F000000000000000000000000F80018
:1021B000001F000000000000000000000000F80008
:1021C000001F000000000000000000000000F800F8
:1021D000001F000000000000000000000000F800E8
:1021E000001F000000000000000000000000F800D8
:1021F000001F00000000000000000000000007FFBA
:10220000C01F00000000000000000000000007FFE9
:10221000C01F00000000000000000000000007FFD9
:10222000C01F00000000000000000000000007FFC9
:10223000C01F00000000000000000000000007FFB9
:10224000C01F0000000000000000000000000000AF
:10225000000000000000000000000000000000007E
:10226000000000000000000000000000000000006E
:10227000000000000000000000000000000000005E
:10228000000000000000000000000000000000004E
:102490000000000000000000000000000000080B29
:1024A000000202020000090400000102020000050F
:1024B000240010010524010101042402060524065C
:1024C00000010705810310004009040100020A0011
:1024D00000000705020240000007058302400000DB
:1024E0000403090412010002EF0201404123368077
:1024F00000010102030141726475696E6F204C4C4A
:10250000430041726475696E6F204C656F6E617235
:10251000646F0000C72011241FBECFEFDAE0DEBFDA
:10252000CDBF11E0A0E0B1E0EAE6F7E602C0059019
:102530000D92AE39B107D9F726E0AEE9B1E001C09E
:102540001D92A13AB207E1F712E1CBE8D2E104C053
:102550002197FE010E949933CA38D107C9F70E941A
:10256000F4200C94B3330C940000EDE3F2E0A0E00F
:10257000B8E000800EBC8111012C1197A0FDFDCFA9
:102580000192B9F70DB40895FC0180913C028823B3
:1025900011F13FB7F89482E08093E9002091F200B6
:1025A000822F90E01816190614F481E090E0882339
:1025B00039F0289844E640933B024091F100408373
:1025C000222339F02091F200211103C02BE6209341
:1025D000E8003FBF08958FEF9FEF08952FB7F8945D
:1025E00083E08093E9009091E800892F807295FF45
:1025F00004C09091F20080E4891B2FBF0895809160
:10260000330281110DC082E080932F0284E0809319
:102610003002109232021092310281E08093330234
:102620008FE292E00895CF93DF931F92CDB7DEB78C
:102630006983DC01ED91FC910280F381E02D41E0A2
:1026400050E0BE016F5F7F4F09950F90DF91CF91F2
:10265000089583E08093E9008091F200882319F0C7
:102660008AE38093E80008950E94EE1290E00895B6
:10267000CF93DF931F92CDB7DEB7FC01848595859C
:1026800097FD08C02FEF3FEF358724870F90DF912C
:10269000CF910895CE0101960E94C412019719F4BA
:1026A000898190E0F3CF8FEF9FEFF0CF0F931F93CF
:1026B000CF93DF931F92CDB7DEB78C01FC018485E9
:1026C000958597FF0BC0CE0101960E94C412019719
:1026D00071F4898190E0F80195878487F8018485F9
:1026E00095850F90DF91CF911F910F9108958FEFF6
:1026F0009FEFF1CFFC018485958597FD0BC09FB7B7
:10270000F89482E08093E9008091F2009FBF90E00E
:10271000019608959FB7F89482E08093E900809134
:10272000F2009FBF90E008954091290250912A0243
:10273000209127023091280242175307B4F4909158
:10274000E8009570E1F39091E80092FD19C0809344
:10275000F1008091290290912A0201968F739927A6
:10276000892B19F48EEF8093E800809129029091D3
:102770002A02019690932A028093290281E008950B
:1027800080E00895DF92EF92FF920F931F93CF9313
:10279000DF93D82E8A01EB017B01E40EF51ECE15E6
:1027A000DF0559F0D7FE12C0FE0184910E949413F8
:1027B00021968111F4CF0FEF1FEFC801DF91CF9168
:1027C0001F910F91FF90EF90DF9008958881EECFD9
:1027D0000F931F93CF93DF931F92CDB7DEB782E0A5
:1027E000898342E450E06EE974E280E80E94C213FB
:1027F0000E94FF12DC0112960D911C91011511052A
:1028000089F0D801ED91FC910280F381E02DBE01A9
:102810006F5F7F4FC801099597FD04C0F8010085DF
:102820001185ECCF89810F90DF91CF911F910F918E
:102830000895615030F02091F100FC012083019651
:10284000F8CF289884E680933B0208953FB7F89428
:102850008091230290912402A0912502B09126023A
:1028600026B5A89B05C02F3F19F00196A11DB11DEB
:102870003FBFBA2FA92F982F8827BC01CD01620F27
:10288000711D811D911D42E0660F771F881F991FE2
:102890004A95D1F708958F929F92AF92BF92CF92AF
:1028A000DF92EF92FF926B017C010E9426144B0194
:1028B0005C01C114D104E104F104B9F00E942614B2
:1028C000681979098A099B09683E73408105910559
:1028D00080F321E0C21AD108E108F10888EE880EE1
:1028E00083E0981EA11CB11CE4CFFF90EF90DF9015
:1028F000CF90BF90AF909F908F9008958F929F92AE
:10290000AF92BF92CF92DF92EF92FF920F931F93FD
:10291000CF93DF936C017B018A018091160188239C
:1029200009F45CC080913C02882309F457C080916F
:102930002E0280FF05C08091E00082608093E0005D
:10294000E801B12C8AEFA82E93E0892E2AE3922E7B
:10295000209711F4BB20D9F10E94EE1281110AC018
:10296000AA94AA20D9F161E070E080E090E00E9492
:102970004B14EECF8C171D0611F00CF08C2F9FB767
:10298000F8948092E9002091E80025FD02C09FBFE5
:10299000DFCF282F30E0C21BD30BF701815020F08E
:1029A00041914093F100FACFE20EF31EBB2021F0DB
:1029B0009092E800B12CEBCF8091E80085FDE7CF45
:1029C0009092E800BB24B394209709F3F3CF5D986D
:1029D00084E680932D02101611063CF081E090E011
:1029E000F6019383828310E000E0C801DF91CF916C
:1029F0001F910F91FF90EF90DF90CF90BF90AF901D
:102A00009F908F9008952FB7F89460911F02709156
:102A1000200280912102909122022FBF0895AF924F
:102A2000BF92CF92DF92EF92FF920F931F93CF93BB
:102A3000DF936C017B018B01040F151FEB015E011D
:102A4000AE18BF08C017D10759F06991D601ED91B2
:102A5000FC910190F081E02DC6010995892B79F751
:102A6000C501DF91CF911F910F91FF90EF90DF9003
:102A7000CF90BF90AF90089520910402E0910202A0
:102A8000F0910302CF010296909303028093020219
:102A9000222319F085919491089580819181089560
:102AA000E1E7F0E080818D7F80831092910046986D
:102AB00047981092E9010895CF92DF92EF92FF922A
:102AC000CF93DF930E943C15811520E8920741F4D3
:102AD000DF91CF91FF90EF90DF90CF900C94501545
:102AE00021E02093E901813020E8920751F48091A0
:102AF00000029091010290930302809302020E94CF
:102B00003C1597FD05C02091E801222309F45BC024
:102B10002091E701211157C021E02093EA01EC0147
:102B2000DF77209709F052C081E08093EB0146984F
:102B30003FE9C32E3FE0D32EE12CF12CCAEFD0E0C9
:102B4000E0919B06F0919C060995811103C081E0FC
:102B50008093EB018091EA01882329F08091EB01B9
:102B6000882309F446C047980E943C15009709F451
:102B700044C09C01DE010E94A330DC01CB0129E0AE
:102B8000B595A795979587952A95D1F710929000BE
:102B90002AE020939100D0929900C09298008093EF
:102BA000EC019093ED01A093EE01B093EF018091C1
:102BB0007100826080937100DF91CF91FF90EF9060
:102BC000DF90CF9008951092EA01A9CF9E0150E0C6
:102BD00040E060E472E48FE090E00E9462306901BE
:102BE0007A0181E0C81AD108E108F1081092EB01DE
:102BF000A7CF4699B8CF479AB7CF8FEF9FEFDC01A9
:102C0000C5CF9C01E1E7F0E090819D7F9083109219
:102C10000402EDE8F6E0F0930302E0930202F09381
:102C20000102E0930002318320837383628380E09A
:102C300090E8958384830C945C152D9A0895BC01CB
:102C400090E080E00C944B148FB18095807F669B60
:102C500088601C9B846008953E9A3F9A81E080932F
:102C6000E6010895480F592F511D14161506D4F585
:102C700080389105BCF597FF02C090E080E04138B4
:102C8000510514F040E850E0481BFB0177FD3796F2
:102C900033E0F595E7953A95E1F7F695FE2FEE27A7
:102CA000F795E795E80FF91FE35CFD4F677077270D
:102CB00081E090E001C0880F6A95EAF7382F213053
:102CC00041F4415078F08191DF011197832B8C936F
:102CD000F8CF8095415030F09191DF011197982302
:102CE0009C93F8CF089580E0EDE3F2E081118FEF3F
:102CF000002481938193819381930394D1F710925F
:102D00000F0210920E0210921102109210020895FA
:102D100090911A02982329F490911B02982381E044
:102D200009F480E00895CF93C82F0E942416982FAD
:102D30009C2381E09C1380E0CF91089580E00C9467
:102D4000B51280389105B8F460347105A0F420E123
:102D500091E061FD94E060FD990F62FD9295687FBE
:102D6000269FD0011124A80FA35CBD4F8C9140FF7A
:102D700003C0892B8C93089590958923FBCF2F92C4
:102D80003F924F925F926F927F928F929F92AF92FB
:102D9000BF92CF92DF92EF92FF920F931F93CF9348
:102DA000DF93EC018B017A016901C61AD70AD7FEBD
:102DB00003C0D194C194D10847018C1A9D0A97FE93
:102DC00003C09194819491088C149D0454F49E2D19
:102DD0008F2D7901292F382F9C2F8D2FE801092F56
:102DE000182FEC16FD0654F4902F812F8901292FFE
:102DF000382F9C2F8D2FE701E92EF82E17012C1A62
:102E00003D0A2901401A510A57FE03C051944194CA
:102E10005108310137FE03C08FEF681A780A7594A4
:102E200067948FEF021713070CF481E0A82E880F28
:102E3000BB08EC16FD06A4F041E0BE01C8018C14ED
:102E40009D0414F0B801CE010E94A1166418750803
:102E500077FE04C00A0D1B1D620C731C2196E9CF7E
:102E6000DF91CF911F910F91FF90EF90DF90CF9066
:102E7000BF90AF909F908F907F906F905F904F909A
:102E80003F902F9008952F923F924F925F926F92B2
:102E90007F928F929F92AF92BF92CF92DF92EF92EA
:102EA000FF920F931F93CF93DF937C016B018824D4
:102EB0008394912CD0E0C0E008E010E090EF692E00
:102EC00077247A9429EFA22EBB24BA94842F84709D
:102ED000582E842F8270482E842F8870382E41708F
:102EE000242E219682E0880E911CA80CB91C552036
:102EF00091F041E0B8016C0D7D1DC7018C0F9D1F45
:102F00000E94A11641E0B6016C0F7D1FC8018E0D15
:102F10009F1D0E94A116442091F041E0B601601B64
:102F2000710BC7018C0F9D1F0E94A11641E0B601D5
:102F30006C1B7D0BC8018E0D9F1D0E94A1163320B6
:102F400091F041E0B6016C0F7D1FC701801B910B12
:102F50000E94A11641E0B8016C0D7D1DC7018C1BBC
:102F60009D0B0E94A116222091F041E0B6016C1B3E
:102F70007D0BC701801B910B0E94A11641E0B60199
:102F8000601B710BC7018C1B9D0B0E94A116C01703
:102F9000D10754F4B7FCA5CF0150110982E0680EA7
:102FA000711CA60CB71C9DCFDF91CF911F910F9183
:102FB000FF90EF90DF90CF90BF90AF909F908F9059
:102FC0007F906F905F904F903F902F9008952F9239
:102FD0003F924F925F926F927F928F929F92AF92A9
:102FE000BF92CF92DF92EF92FF920F931F93CF93F6
:102FF000DF93E22EF12C9701280F391F12161306CA
:103000000CF043C04A016B013C01402E512C1701CA
:1030100027E0220E311C93E0359427949A95E1F72E
:103020008B01B12CA12CD0E0C0E0FE0183E0F5952E
:10303000E7958A95E1F7EA0DFB1DE80DF91DE4918E
:10304000CE018770992720E830E002C0359527959A
:103050008A95E2F7C901F0E0E223F923EF2B39F07A
:1030600041E0B801C3018C0F9D1F0E94A11621965B
:10307000CE15DF05D4F2A20CB31C0F5F1F4FC801A1
:103080008C199D098415950574F2DF91CF911F91DC
:103090000F91FF90EF90DF90CF90BF90AF909F90F7
:1030A0008F907F906F905F904F903F902F900895FA
:1030B0008F929F92AF92BF92CF92DF92EF92FF9248
:1030C0000F931F93CF93DF936D3089F0C0900E0262
:1030D000D0900F026A30D1F41092110210921002B7
:1030E00088E0C80ED11CD0920F02C0920E0281E07F
:1030F00090E0DF91CF911F910F91FF90EF90DF90C3
:10310000CF90BF90AF909F908F9008950091100244
:1031100010911102E5E06E9FE0011124C651DE4FCF
:103120004801F12CF5E0E12CFF1629F0CE010196C3
:10313000FE01E490EC01B12CA12C4E2D4170B601A2
:103140006A0D7B1DC4010E94A116E694FFEFAF1A21
:10315000BF0A88E0A816B10481F7F394EFEF8E1A46
:103160009E0AF6E0FF12DECF0A5F1F4F1093110296
:1031700000931002BCCF0F931F93CF93DF938C016A
:10318000D0E0C0E0F801EC0FFD1F6491662341F030
:103190008DE996E00E945818892B11F02196F2CF04
:1031A000CE01DF91CF911F910F910895DF92EF92A1
:1031B000FF920F931F93CF93DF937C01D22E8B014D
:1031C000040F111DEB0177FF02C0D0E0C0E0C80181
:1031D0000134110514F080E490E0C817D9073CF4DD
:1031E0004D2DBE01C7010E94A1162196F0CFDF919F
:1031F000CF911F910F91FF90EF90DF90089521E004
:1032000040E770E060E088E090E00E94321621E044
:1032100040E76FE370E088E090E00E94321621E022
:1032200040E368E070E090E080E00E94D61821E082
:1032300040E368E070E08FE790E00E94D61841E03C
:1032400068E070E088E090E00E94431742E068E0A8
:1032500070E087E790E00E94431744E067E370E086
:1032600087E790E00E94431748E067E370E088E05A
:1032700090E00C944317CF92DF92EF92FF920F935E
:10328000CF93DF936C017B01C42FD22F202F0E949C
:103290003216B7016D0F711D6150710960347105EF
:1032A0002CF4202F4C2FC6010E943216202F4D2FB8
:1032B000B701C6010E94D618C6018C0F911D202FA0
:1032C0004D2FB7010197DF91CF910F91FF90EF90B4
:1032D000DF90CF900C94D61810920602109205023F
:1032E00080E090E0A0ECBFE380930501909306019D
:1032F000A0930701B093080180930101909302010C
:10330000A0930301B09304011092FC011092FD01FF
:103310001092FE011092FF011092F4011092F5013B
:103320001092F6011092F7011092F8011092F90133
:103330001092FA011092FB01109209020895089769
:1033400020F481E06830710508F080E008950F9363
:103350001F93CF93DF93EC018B010E949F19882369
:1033600081F089E0809FF001819FF00D1124E256E9
:10337000FE4FEC0FFD1F8081DF91CF911F910F91C8
:10338000089581E3F9CF2F923F924F925F926F920F
:103390007F928F929F92AF92BF92CF92DF92EF92E5
:1033A000FF921F93CF93DF93CDB7DEB764970FB62D
:1033B000F894DEBF0FBECDBF2B013C0129833A83B9
:1033C0004B835C838091050190910601A0910701D8
:1033D000B09108018D839E83AF83B887BC01CD0176
:1033E0000E949B316B017E876D87809101019091D6
:1033F0000201A0910301B091040189879A87AB87EC
:10340000BC87BC01CD010E949B314B017A8B698B3B
:10341000C6010E949F19882341F0B401C6010E9491
:10342000A7198153823008F4BBC0C301B2010E94C6
:103430009B314B017C8B6B8B69817A818B819C8169
:103440000E949B316B01C4010E949F19182F882391
:1034500009F4A7C0B601C4010E94A71981538230A4
:1034600008F49EC0AD85BE85A815B90531F48989DB
:103470009A898C159D0509F494C02D813E814F8158
:103480005885C301B2010E94B2304B015C0129850D
:103490003A854B855C8569817A818B819C810E940C
:1034A000B23069837A838B839C8375016401E894CD
:1034B000F7F82B013C01E89477F8A3019201C701CA
:1034C000B6010E94C232181614F0730162012DEC8D
:1034D0003CEC4CEC5DE3C701B6010E94C232181609
:1034E0000CF05FC0A7019601C501B4010E9429310B
:1034F0006D877E878F87988BA701960169817A8176
:103500008B819C810E9429312B013C01A1E0B0E01C
:10351000BA8BA98BC701B6010E949B3129893A89D0
:1035200062177307F4F1B901330F880B990B0E94EE
:10353000D3314B015C012D853E854F8558890E9412
:10354000C7322D813E814F8158850E94B3300E9441
:103550009B3169837A838B839C83A3019201C5018C
:10356000B4010E94C73229853A854B855C850E944B
:10357000B3300E949B314B0189819A810E949F192F
:10358000882341F0B40189819A810E94A71981534F
:10359000823030F089899A8901969A8B898BBACFCB
:1035A00010E0812F64960FB6F894DEBF0FBECDBF3A
:1035B000DF91CF911F91FF90EF90DF90CF90BF9060
:1035C000AF909F908F907F906F905F904F903F90C3
:1035D0002F900895CF92DF92EF92FF920F931F9357
:1035E000CF93DF9328E4AC01249FC001259F900D69
:1035F0001124AEE9B1E08E59914030E020E0AC01F9
:103600004A0F5B1F46535F4FFA01E20FF31FE4912D
:10361000ED01C20FD31FE8832F5F3F4F28303105E4
:1036200099F718961C921897199651E0A63EB5077F
:1036300021F7C1E0D0E001E010E06E010D2E000C9A
:10364000EE08FF0829C08823B1F31092FC01109204
:10365000FD011092FE011092FF010E94031560937C
:10366000F4017093F5018093F6019093F7010E94A5
:1036700003156093F8017093F9018093FA01909318
:10368000FB01DF91CF911F910F91FF90EF90DF90A1
:10369000CF900895811134C0BE01C8010E94A719BE
:1036A000803309F049C0B801012E000C880B990B3A
:1036B0000E94D33120E030E040E05FE30E94B3306D
:1036C00060930501709306018093070190930801B0
:1036D000C701B6010E94D33120E030E040E05FE353
:1036E0000E94B33060930101709302018093030143
:1036F0009093040181E00F5F1F4F0730110551F6D1
:103700002196C730D10509F09ECF81119ECF80E070
:1037100090E0A0ECBFE38093050190930601A09395
:103720000701B09308018093010190930201A093D7
:103730000301B093040189CF80E0DDCF64E670E03F
:1037400088E592E00E94011662E370E080E090E07C
:103750000E944B1464E670E08CEB92E00E9401162C
:1037600062E370E080E090E00E944B1466E970E054
:1037700080E293E00C9401168091E601089508958B
:1037800090E080E008958F929F92AF92BF920F9346
:103790001F93CF93DF93CDB7DEB7A1970FB6F89401
:1037A000DEBF0FBECDBF19A2423008F44AE08E0141
:1037B0000F5D1F4F842E912CB12CA12CA5019401DB
:1037C0000E948130E62FB901CA01EA3044F5E05D7C
:1037D000D801EE938D01232B242B252B79F790E034
:1037E00080E0109769F0FD0101900020E9F7319722
:1037F000AF014A1B5B0BBD018DE996E00E940F15DE
:10380000A1960FB6F894DEBF0FBECDBFDF91CF916A
:103810001F910F91BF90AF909F908F900895E95C9A
:10382000D7CF8F929F92AF92BF92CF92DF92EF92BB
:10383000FF920F931F93CF93DF938C01EB016901EC
:103840007A0120E030E0A901C701B6010E941F31D2
:1038500087FF0BC02BED3FE049EC50E4C701B601F8
:103860000E94B3306B017C01ECCF2BED3FE049ECC3
:1038700050E4C701B6010E94C23287FD0BC02BED98
:103880003FE049EC50E4C701B6010E94B2306B0141
:103890007C01EBCFC701B6010E9424314B015C01D2
:1038A000C701B6010E9434336B017C01C501B4012C
:1038B0009F77A70196015F770E94C232181604F520
:1038C00020E030E0A901C501B4010E94C2321816FF
:1038D000A4F08FEF9FEFF801918380831982188203
:1038E000DF91CF911F910F91FF90EF90DF90CF90DC
:1038F000BF90AF909F908F90089581E090E0EBCFC4
:10390000F8011182108220E030E0A901C701B60160
:103910000E94C23218162CF08FEF9FEF9983888394
:10392000DFCF81E090E0FACF4F925F926F927F926B
:103930008F929F92AF92BF92DF92EF92FF920F937E
:103940001F93CF93DF9300D000D0CDB7DEB75C01DB
:103950004B0129013A01BE016F5F7F4FCE010396F3
:103960000E94111C0B811C810A0D1B1DE980FA802D
:10397000E80CF91CB701C8010E949F19D82E8111CB
:1039800016C0D12C8D2D0F900F900F900F90DF91BE
:10399000CF911F910F91FF90EF90DF90BF90AF906C
:1039A0009F908F907F906F905F904F900895B70198
:1039B000C8010E94A719803311F0833311F7A301C6
:1039C0009201BE016F5F7F4FCE0103960E94111CD2
:1039D0000B811C810A0D1B1DE980FA80E80CF91C83
:1039E000B401C5010E949F19882361F089E0889D78
:1039F000D001899DB00D1124A256BE4FAA0DBB1D4A
:103A000080E38C93B701C8010E949F19882361F05D
:103A100089E08E9DF0018F9DF00D1124E256FE4F3E
:103A2000E00FF11F82E3808362E370E080E991E0C0
:103A30000E94011610E000E0F12CE12CB801C70152
:103A40000E94A719833309F49DCF8FEFE81AF80A73
:103A500088E0E816F10491F70F5F1F4F0830110559
:103A600059F789E090E090931D0280931C020E9418
:103A70009E1B88CF0C944C3082E090E00E943A1D4F
:103A800081110C942C161092E6013E983F980895EF
:103A90001F920F920FB60F9211248F939F938091D4
:103AA000E1009091E100937F9093E10083FF0FC0CC
:103AB0001092E90091E09093EB001092EC0092E3F9
:103AC0009093ED0010923C0298E09093F00082FFFA
:103AD00022C093E09093E9009091F200992319F0AD
:103AE0009AE39093E80090912D02992341F09091F0
:103AF0002D02915090932D02911101C05D9A9091E9
:103B00003B02992341F090913B02915090933B02EC
:103B1000911101C0289A84FF18C08091E2008E7E26
:103B200081608093E2008091E1008F7E8093E100CC
:103B300080912E028E7E806180932E029F918F91C4
:103B40000F900FBE0F901F90189580FFF7CF8091B8
:103B5000E2008E7E80618093E2008091E1008E7EA3
:103B60008093E10080912E028E7E8160E5CF1F92CE
:103B70000F920FB60F921124CF92DF92EF92FF9225
:103B80000F931F932F933F934F935F936F937F9365
:103B90008F939F93AF93BF93EF93FF93CF93DF9355
:103BA000CDB7DEB76C97DEBFCDBF1092E900809134
:103BB000E80083FF25C068E0CE0145960E941914F5
:103BC00082EF8093E8008D8987FF39C09091E800EB
:103BD00090FFFCCF982F907609F034C19E894F89D1
:103BE000588D2F89F88C911131C0803861F5809102
:103BF0002C028093F1001092F1008EEF8093E80088
:103C00006C960FB6F894DEBF0FBECDBFDF91CF919B
:103C1000FF91EF91BF91AF919F918F917F916F91A4
:103C20005F914F913F912F911F910F91FF90EF90D6
:103C3000DF90CF900F900FBE0F901F9018959EEFC2
:103C40009093E800C7CF1092F100D5CF913059F48E
:103C50008111D3CF4130510581F680912C028D7FA7
:103C600080932C02CACF933049F48111C6CF4130E2
:103C7000510519F680912C028260F2CF953041F403
:103C80008091E80080FFFCCF20682093E300B5CF4F
:103C9000963009F0A9C00B8D1C8D22E01092E9002E
:103CA00010922A0210922902F2122EC010922802BB
:103CB000109227020E94E8131F8299E09983FA82EA
:103CC00091E09E8390EA98879AEF99872091290244
:103CD00030912A02275F3F4F3C832B838D831092C4
:103CE000E90010922A0210922902109328020093F0
:103CF000270249E050E0BE016F5F7F4F80E00E94E5
:103D0000C2130E94E81379CF109328020093270270
:103D10000E94FF12DC0112960D911C9101151105F4
:103D200009F451C1D801ED91FC910480F581E02D99
:103D3000BE016B5E7F4FC8010995009709F03EC137
:103D4000F80100851185EACFF3E0FF120EC08F89DC
:103D5000882309F440C0823061F440E860E182E0E9
:103D600095E20E949420811148CF81E28093EB007C
:103D700047CF813029F440E86BE086EF94E2F1CF41
:103D8000833099F70E94FF12DC011296ED90FC90AF
:103D90008E010F5F1F4F6801E114F10479F0D70124
:103DA000ED91FC910680F781E02DB801C7010995DE
:103DB000080F111DF701E084F184EECFD8011C92A9
:103DC000F60101900020E9F73197BF016C197D09D8
:103DD00040E0C601C6CF60EE74E2FB01449150E0C2
:103DE00080E80E94C21309CF973009F4BECF983003
:103DF00021F481E08093F10000CF993009F0FDCEED
:103E0000837009F0B2CFE3E3F1E081E031E096E3C3
:103E10002191222371F08093E9003093EB00DF01C0
:103E200011972C912093EC009093ED008F5F8730D9
:103E300079F78EE78093EA001092EA008F898093E9
:103E40003C02DBCE8B8D9C8D1092E90010922A02F1
:103E5000109229029093280280932702898D811164
:103E600092C08E899D89913A49F4813209F07DCFC3
:103E700047E050E06FE071E080E0B3CF913209F0AD
:103E800074CF833269F48F89988DB0E0A0E080937D
:103E90000B0190930C01A0930D01B0930E01ADCED8
:103EA000803269F48091E80082FFFCCF67E08FE008
:103EB00091E00E9419148BEF8093E8009ECE82322D
:103EC00009F09BCE8F8980931601EEEFFFE7859175
:103ED00094918B3F9C4D51F1E0E0F8E080910F010F
:103EE00090911001A0911101B0911201803B94407A
:103EF000A105B105F1F48091160180FD1AC0EE3FD5
:103F00008AE0F80789F587E797E7918380838091B6
:103F1000600080932B0288E19BE00FB6F894A8958F
:103F2000809360000FBE9093600067CEEEEFFAE0E2
:103F3000D5CF808191818737974709F05ECEA895CC
:103F40008091600088618093600080912B02809353
:103F50006000EE3F2AE0F20789F08091FE0A90911E
:103F6000FF0A9183808349CE8081918187379807AA
:103F700051F29093FF0A8093FE0AC5CF1092FF0A78
:103F80001092FE0A3ACE0E94FF12DC0112960D91A9
:103F90001C910115110509F4E8CED801ED91FC91B1
:103FA0000190F081E02DBE016B5E7F4FC801099545
:103FB000811123CEF80100851185EBCF1816190663
:103FC0000CF41BCED2CEF1E0FF12BECE64EE74E252
:103FD00004CF1F920F920FB60F9211242F933F938D
:103FE0008F939F93AF93BF9380911F029091200274
:103FF000A0912102B091220230911E0223E0230FF2
:104000002D3758F50196A11DB11D20931E028093F6
:104010001F0290932002A0932102B093220280916C
:10402000230290912402A0912502B09126020196CC
:10403000A11DB11D8093230290932402A093250219
:10404000B0932602BF91AF919F918F913F912F9195
:104050000F900FBE0F901F90189526E8230F029621
:10406000A11DB11DD2CF1F920F920FB60F92112436
:104070002F933F934F935F936F937F938F939F9370
:10408000AF93BF93EF93FF938091EC019091ED017B
:10409000A091EE01B091EF01892B8A2B8B2B09F4B3
:1040A00040C08091EB0181110BC088B190E4892759
:1040B00088B98091EA01882319F088B1805888B9BD
:1040C0008091EC019091ED01A091EE01B091EF0192
:1040D000181619061A061B069CF48091EC019091A3
:1040E000ED01A091EE01B091EF010197A109B10995
:1040F0008093EC019093ED01A093EE01B093EF015A
:10410000FF91EF91BF91AF919F918F917F916F91AF
:104110005F914F913F912F910F900FBE0F901F9085
:1041200018950E945C15ECCFEF92FF920F931F93AE
:10413000CF93DF93F82E192FE62E042F81E0860F00
:10414000880F0E94941383E00E949413CF2DD12FE7
:10415000EC0EFD2EF11CCE15DF05B9F007FF13C0E4
:10416000FE0184910E949413182F80E00E94941302
:10417000812321968111EFCFDF91CF911F910F9174
:10418000FF90EF9008958881EDCF81E0F5CFEDE3CA
:10419000F6E01382128288EE93E0A0E0B0E0848320
:1041A0009583A683B7838DE391E0918380838FEF1E
:1041B0009FEF95878487EDE9F6E0138212828FE402
:1041C00091E0918380838CEB9BE190939C0680939C
:1041D0009B0680E090E890939A0680939906469813
:1041E0003E9A47983F9A0895CF93DF93CDB7DEB7B5
:1041F000AE970FB6F894DEBF0FBECDBF789484B5EE
:10420000826084BD84B5816084BD85B5826085BDD2
:1042100085B5816085BD80916E00816080936E0060
:104220001092810080918100826080938100809152
:104230008100816080938100809180008160809303
:104240008000809191008260809391008091910024
:1042500081608093910080919000816080939000B4
:104260008091C10084608093C1008091C100826010
:104270008093C1008091C10081608093C1008091D2
:10428000C30081608093C3008091C00082608093EE
:10429000C0008091C20081608093C20080917A004A
:1042A000846080937A0080917A00826080937A00A3
:1042B00080917A00816080937A0080917A00806892
:1042C00080937A0010923C0210922C0210922E02DF
:1042D0008091D70081608093D70080EA8093D800D6
:1042E00089B5806189BD89B5826089BD09B400FE48
:1042F000FDCF61E070E080E090E00E944B1480917F
:10430000D8008F7C80618093D8008091E000807F0E
:104310008093E0008091E1008E7E8093E1008DE04B
:104320008093E200559A209A81EC80937C0085B1BD
:10433000806F85B984B1877E84B984B1876E84B972
:104340005E9A5F988AB1806D8AB9769A6E9881B3C9
:10435000806F81BB899880B38D7080BB80E58CBDF8
:1043600081E08DBD85E090E00E941F165F9A85E098
:1043700090E00E941F165E985C98EAE9F7E087EAF1
:1043800097E024912EBD00000DB407FEFDCF3196BD
:104390008E179F07B1F75C9A81E880936400809143
:1043A00065008160809365000E949E1680E80E94EF
:1043B00093168823A9F05C9885EA8EBD00000DB4A1
:1043C00007FEFDCF5C9A2E982F982D98809164005F
:1043D00080628093640081E083BF889513BEFCCF28
:1043E00084E00E949316882309F448C02D9884E83D
:1043F0000E9493168823E1F00E941D1688EC90E03D
:104400000E941F162F9882E090E00E944C308F3F50
:1044100029F06FEF82E090E00E94543084EF91E049
:104420000E941F162F9A84E80E9493168111FBCFD9
:1044300084E10E9493168823E1F00E941D1688EC07
:1044400090E00E941F162E9882E090E00E944C306F
:10445000882329F060E082E090E00E94543084EFED
:1044600091E00E941F162E9A84E10E9493168111FA
:10447000FBCF88EC90E00E941F16B2CF0E941D1661
:104480000E943C1D81E090E00E943A1D082F0470BC
:10449000702E81FF11C001112E9801EF1FEF78E0FF
:1044A000E72EF12C80E40E949316882309F43FC084
:1044B0002E9A2F9A0E941D1682E390E00E941F16EA
:1044C0000E9424168111F8CF0E94731680E1809318
:1044D00000010E943C1D0E942C1610921D02109299
:1044E0001C02109209021092080210920702109208
:1044F000F4011092F5011092F6011092F70110925A
:10450000F8011092F9011092FA011092FB010E9439
:1045100003158091F201882309F4C7C01092F201BB
:1045200080E090E0892B99F30E940000F0CF772083
:1045300029F00430110511F42E9A2F9881E00E9481
:10454000B512980117FF04C022273327201B310B17
:1045500027703327C80117FD079663E09595879567
:104560006A95E1F717FF05C00197A701421B530B9E
:104570009A01BC017695762F662777956795635CDF
:104580007D4FB0E0A0E02701421A530A8E3F5FEF53
:10459000950709F43AC050E040E0FD01E651F94FBB
:1045A0005F014B01F0E88F0E911C8F3F980791F04F
:1045B000F501E40FF51FE4916B01C40ED51EF0E088
:1045C0001F01022E01C0220C0A94EAF7F60164884A
:1045D0002628248A2115310599F0F501E40FF51FED
:1045E000E4916401C40ED51EF0E01F01042C02C04A
:1045F000359427940A94E2F7F60164882628248AE1
:104600004F5F5F4F4835510581F60196A85ABF4F5D
:1046100060587F4FA03BB10509F0B8CF0E949E16AD
:104620008FE090E00E941F160F5F1F4F09311105A8
:1046300009F038CF772011F02F9A2D9880E991E07A
:104640000E941F160E941D1681E090E00E943A1DF4
:1046500080FF32CF8AE090E00E943A1D9FEF980FD2
:104660009E3F08F029CF22E330E0309311022093DF
:10467000100228E330E030930F0220930E020BE08B
:1046800010E0682F8DE996E00E945818C8010E943A
:104690003A1D0F5F1F4F0131110599F70E949E16B9
:1046A00088EE93E00E941F1607CF8091F301F62F4A
:1046B000F81B8F2F90910001F91748F48F5F89172D
:1046C00008F02ECF81E083BF889513BE29CF81E00B
:1046D0008093F2016093F3018091F0019091F101D8
:1046E00001969093F1018093F00180911B028093D9
:1046F0001A020E94241680931B020E9473160091D6
:104700001C0210911D020C30110508F0E6C0F801E2
:10471000E457FC4D0C94993398237024D124382508
:10472000F8255B2639273927102BB32B912CED2C3C
:104730000E94731600E420E84CE950E264E170E066
:1047400086EF9FEF0E94E7170E940315AB01BC01A3
:104750008091160290911702A0911802B09119024F
:104760008A019B01081B190B2A0B3B0BD901C801BD
:1047700089379105A105B105A8F0809114029091A7
:1047800015028D30910508F041C0019690931502F5
:1047900080931402409316025093170260931802FC
:1047A00070931902C0901402D09015022AEFA6014E
:1047B00024038001259F100D112400581F4F17FF5F
:1047C00002C00F5F1F4F159507950C5E1F4F34E217
:1047D000E32E31E0F32E42E1A42EB12CC701845226
:1047E00091408C159D0504F5109311020093100261
:1047F000B0920F02A0920E02D7016D917D018DE95A
:1048000096E00E9458180A5F1F4FE8CF809112026D
:10481000909113028C30910508F0BCCF01969093D3
:10482000130280931202B6CFC0901202D0901302EE
:104830002AEFA60124038001259F100D11240058A2
:104840001F4F17FF02C00F5F1F4F159507950C5E96
:104850001F4F97E1E92E91E0F92EC7018751914052
:104860008C159D05A4F4109311020093100282E2AE
:1048700090E090930F0280930E02D7016D917D011D
:104880008DE996E00E9458180A5F1F4FE6CF8BE42F
:1048900090E0909311028093100287E390E0909350
:1048A0000F0280930E0283E990E20E94BB180E94DF
:1048B000031520E931E040E050E00E94813020FF04
:1048C0000E94FF1888E00E948816882331F081E05A
:1048D00090E090931D0280931C020E949E1620CEB1
:1048E00009E229E545EA5EE16BEF7FEF84EC9FEF9B
:1048F0000E94E71703E226E448E65DE16BEF7FEFF5
:104900008BEF9FEF0E94E7170AE226E340E45CE1A9
:104910006BEF7FEF86E490E00E94E7170BE22DE358
:1049200046EE5AE16BEF7FEF88E290E00E94E717D6
:10493000E3E0F0E0F0931102E093100283E290E0F4
:1049400090930F0280930E0288ED9AE10E94BB18AB
:1049500003E010E010931102009310028DE290E04A
:1049600090930F0280930E0282EC9AE10E94BB1892
:104970008BE490E0909311028093100287E390E023
:1049800090930F0280930E0289EB9AE10E94BB186C
:1049900088E00E948816882309F49FCF82E090E087
:1049A00098CF0E9473160FE010E01093110200934D
:1049B000100282E090E090930F0280930E028DEA45
:1049C0009AE10E94BB1823E030E03093110220935B
:1049D000100210930F0200930E0284EA9AE10E94E3
:1049E000BB1805E010E0109311020093100289E15A
:1049F00090E090930F0280930E0281E99AE10E9469
:104A0000BB1843E050E0509311024093100283E240
:104A100090E090930F0280930E028FE79AE10E943C
:104A2000BB1810931102009310028DE290E0909356
:104A30000F0280930E028DE69AE10E94BB188BE470
:104A400090E0909311028093100287E390E090939E
:104A50000F0280930E0284E69AE10E94BB1888E060
:104A60000E948816882309F438CF83E090E031CF84
:104A70000E9473160FE010E01093110200931002D1
:104A800082E090E090930F0280930E0287E59AE116
:104A90000E94BB18109311020093100210930F0292
:104AA00000930E0288E49AE10E94BB181093110251
:104AB0000093100289E190E090930F0280930E0220
:104AC00088E39AE10E94BB180E94031500910A0234
:104AD00010910B0220910C0230910D02601B710BA2
:104AE000820B930B6333710581059105E8F000910A
:104AF000090110910A010150110910930A01009354
:104B000009010E94031560930A0270930B028093BF
:104B10000C0290930D020C351E4F34F480E890E0A7
:104B200090930A01809309018091090190910A01F3
:104B300090931102809310028DE290E090930F0207
:104B400080930E0246E450E067E571E08DE996E05F
:104B50000E940F158BE490E0909311028093100255
:104B600087E390E090930F0280930E028FE29AE128
:104B70000E94BB180CE610E021E04AE06AE070E019
:104B8000C8010E94D6180F5F1F4F06371105A1F705
:104B900000E026E046E06CE070E08EE690E00E94E7
:104BA0003B1923E230E046E750E069E170E08CE633
:104BB00090E00E94BF1623E230E04CE650E069E14D
:104BC00070E086E790E00E94BF1688E00E94881699
:104BD000882309F482CE84E090E090931D028093B4
:104BE0001C0280E890E090930A018093090175CE41
:104BF0000E9473168AE090E0909311028093100255
:104C000002E010E010930F0200930E028DE19AE192
:104C10000E94BB1810931102009310028FE090E0E5
:104C200090930F0280930E0288E09AE10E94BB18D5
:104C3000109311020093100289E190E090930F020B
:104C400080930E0286EF99E10E94BB181093110227
:104C50000093100283E290E090930F0280930E0283
:104C600083EE99E10E94BB18109311020093100289
:104C70008DE290E090930F0280930E028FEC99E109
:104C80000E94BB188BE490E0909311028093100275
:104C900087E390E090930F0280930E0286EC99E1F7
:104CA0000E94BB1888E00E948816882309F415CE5C
:104CB00085E090E00ECE80910902811118C00E941B
:104CC0005015809171008D7F8093710011E01093D9
:104CD00004028CE399E19093030280930202909383
:104CE0000102809300020E945C151093090280E883
:104CF0000E948816882361F0809107029091080233
:104D0000181619062CF40197909308028093070255
:104D100080E10E948816882361F0809107029091BB
:104D20000802823091052CF401969093080280933A
:104D3000070204E110E0109311020093100282E0D8
:104D400090E090930F0280930E0281E399E10E941C
:104D5000BB1810921102109210028CE090E0909318
:104D60000F0280930E0283E299E10E94BB18109219
:104D700011021092100210930F0200930E0282E1B2
:104D800099E10E94BB1810921102109210028CE15E
:104D900090E090930F0280930E0283E099E10E94CD
:104DA000BB18109211021092100286E290E09093CC
:104DB0000F0280930E0200910702109108028CEFFF
:104DC00098E10115110511F085EF98E10E94BB18DB
:104DD00010921102109210028EE290E090930F0256
:104DE00080930E028CEE98E10130110511F083EEF4
:104DF00098E10E94BB18109211021092100286E3F3
:104E000090E090930F0280930E028CED98E10230B7
:104E1000110511F085ED98E10E94BB181092110266
:104E20001092100210920F0210920E0286EC98E17E
:104E30000E94BB1888E00E948816882369F00E94AF
:104E40005015109209020E946C19809105029091F0
:104E500006020E94EA1A37C084E00E94881688235E
:104E600009F43BCD0E945015109209028BE090E0AE
:104E700030CD84E00E948816882369F00E94501586
:104E8000109206021092050210921D0210921C024E
:104E90001092090222CD88E00E948816882309F426
:104EA000BBC580E80E9493168111B6C580910702A8
:104EB00090910802029708F0AFC587E090E00630B5
:104EC000110509F406CD86E090E003CD0E9473162B
:104ED00082E390E0909311028093100210920F02EF
:104EE00010920E0282EC98E10E94BB1801E022E3CE
:104EF00042E367E070E087E290E00E943B1909E03E
:104F0000C02ED12C712C612C4601A1E08A1A910887
:104F10001601B4E02B0E311C18E2E12EF12CB12C5D
:104F2000A12CB301C5010E94A7198701F70136968C
:104F30002F01813361F40415150501F121E046E0EC
:104F4000B401C8010E94D6180F5F1F4FF4CF8233FF
:104F500009F010C20415150549F021E046E0B4013E
:104F6000C8010E94D6180F5F1F4FF4CF00E024E065
:104F700044E0B601C70101960E943B19FFEFAF1A4A
:104F8000BF0A720108E0A016B10459F61FEF611ABA
:104F9000710A26E0C20ED11C38E06316710409F0D4
:104FA000B3CF20E030E040EC50E460910501709117
:104FB000060180910701909108010E94C7320E946A
:104FC0009B312B018B01085D1F4F20E030E040EC4E
:104FD00050E4609101017091020180910301909170
:104FE00004010E94C7320E949B314B017B0148E0C3
:104FF000E40EF11C41E0B701C8010E94A116C201F4
:10500000899641E0B7010E94A116C201879641E04E
:10501000B7010E94A116B401675F7F4F41E0C8014C
:105020000E94A116B401695F7F4F41E0C8010E9450
:10503000A1168090FC019090FD01A090FE01B0901F
:10504000FF01C501B4010E9424312B013C01C501BF
:10505000B4010E94343320E030E040E450E40E9488
:10506000C7320E949B316701C60ED71E20E030E098
:1050700040E450E4C301B2010E94C7320E949B3158
:10508000A801460F571F9601B701C8010E94BF161D
:105090008091070290910802892B09F07DC184E17B
:1050A00090E0909311028093100288E390E0909337
:1050B0000F0280930E0286EB98E10E94BB180E94BB
:1050C00003156B017C018091F8019091F901A09189
:1050D000FA01B091FB01892B8A2B8B2B09F46DC14E
:1050E0008091F8019091F901A091FA01B091FB0132
:1050F00097018601081B190B2A0B3B0BD901C8012C
:105100008C329140A105B10508F4E7CB2091FC0158
:105110003091FD014091FE015091FF012D833E83AE
:105120004F835887CA01B9010E9424312AE939E91D
:1051300049E95EE30E94C73269877A878B879C873B
:105140006D817E818F8198850E9434332AE939E907
:1051500049E95EE30E94C732698B7A8B8B8B9C8B0B
:1051600080E80E949316882309F475C088E00E94A5
:105170009316811170C04090050150900601609017
:10518000070170900801A301920169857A858B85DA
:105190009C850E94B3306D877E878F87988B809027
:1051A000010190900201A0900301B0900401A501BB
:1051B000940169897A898B899C890E94B3306D8BAF
:1051C0007E8B8F8B988F2D813E814F815885BE01BC
:1051D0006F5F7F4FCE0103960E94111CC301B20185
:1051E0000E949B316B807C80660E771EC501B401E6
:1051F0000E949B3109811A81060F171FB801C30154
:105200000E949F19882339F1B801C3010E94A71990
:105210008153823000F18D859E85AF85B88980935A
:10522000050190930601A0930701B09308010D8931
:105230001E892F89388D009301011093020120935C
:10524000030130930401C092F801D092F901E09279
:10525000FA01F092FB0180E80E949316882309F47A
:10526000FDC088E00E949316882309F4F7C080905F
:10527000050190900601A0900701B0900801A501DA
:10528000940169857A858B859C850E94B3306D87F2
:105290007E878F87988B2091010130910201409188
:1052A00003015091040129873A874B875C876989FC
:1052B0007A898B899C890E94B3302B013C012D8116
:1052C0003E814F815885BE016F5F7F4FCE010396AF
:1052D0000E94111CC501B4010E949B31AB80BC80AF
:1052E000A60EB71E69857A858B859C850E949B31A9
:1052F00009811A81060F171FB801C5010E949F1965
:10530000882309F4ABC0B801C5010E94A7198233F4
:1053100009F085C02D813E814F815885B801C501B6
:105320000E94941C882309F499C0B801C5010E9409
:10533000A7198153823008F049C08D859E85AF85BD
:10534000B8898093050190930601A0930701B0935B
:105350000801409201015092020160920301709293
:105360000401C092F801D092F901E092FA01F092A2
:10537000FB01B3CA833309F001CE0B5F1F4F9101CC
:10538000A801B401C7010E94BF169101A701B40191
:10539000C8010E94BF16F2CD8FE090E090931102F9
:1053A0008093100288E390E090930F0280930E02A6
:1053B00089EA98E10E94BB1890CAC092F801D09285
:1053C000F901E092FA01F092FB018ACEB501BB0C23
:1053D000880B990B0E94D33120E030E040E05FE37E
:1053E0000E94B3306093050170930601809307011A
:1053F00090930801B801110F880B990B0E94D331CB
:1054000020E030E040E05FE30E94B33060930101B0
:10541000709302018093030190930401A2CF815302
:105420008230E0F00D851E852F85388900930501B7
:105430001093060120930701309308014092010167
:10544000509202016092030170920401C092F8012F
:10545000D092F901E092FA01F092FB0180E20E9401
:1054600093168823F1F02FE832EC45E75EE3609174
:10547000FC017091FD018091FE019091FF010E945D
:10548000B2306093FC017093FD018093FE01909314
:10549000FF01C092F801D092F901E092FA01F09276
:1054A000FB0180E40E949316882309F416CA2FE8B2
:1054B00032EC45E75EE36091FC017091FD01809163
:1054C000FE019091FF010E94B3306093FC01709344
:1054D000FD018093FE019093FF0143CF80E10E9484
:1054E0009316882309F446C02D813E814F8158854B
:1054F000609105017091060180910701909108016A
:105500000E94B2304B015C0129853A854B855C8550
:105510006091010170910201809103019091040159
:105520000E94B2302B013C01AC019B01C501B401CA
:105530000E94C3198823F1F0809205019092060120
:10554000A0920701B092080140920101509202011D
:1055500060920301709204016EE170E088EC90E0CB
:105560000E940116C092F401D092F501E092F6017A
:10557000F092F70180E20E9493168823F1F02FE861
:1055800032EC45EF5DE36091FC017091FD0180918B
:10559000FE019091FF010E94B2306093FC01709374
:1055A000FD018093FE019093FF01C092F401D0921F
:1055B000F501E092F601F092F70180E40E94931663
:1055C000882309F460C32FE832EC45EF5DE3609176
:1055D000FC017091FD018091FE019091FF010E94FC
:1055E000B3306093FC017093FD018093FE019093B2
:1055F000FF0141C30150110909F09EC31D8E1E8E8B
:10560000DFC3198E1A8E00E012E421E02E8FDCC376
:105610000D81098F19851A8F09891D851E8ED4C3A6
:105620000E947316009105021091060203301105C5
:105630000CF06AC08FE090E090931102809310020A
:1056400024E1E22EF12CF0920F02E0920E0283EAA6
:1056500098E10E94BB1882E390E09093110280933E
:105660001002F0920F02E0920E020F5F1F4F6801CE
:10567000012E000CEE08FF084AE0C701B60117FF33
:105680000DC06DE28DE996E00E94581866277727D5
:10569000CB016C197D098E099F094AE00E94C31B4A
:1056A00084E190E090931102809310028EE190E0EB
:1056B00090930F0280930E0289E998E10E94BB1833
:1056C00089E190E090931102809310028DE290E0C6
:1056D00090930F0280930E028BE898E10E94BB1812
:1056E00088E00E948816882309F40BC18091050286
:1056F00090910602833091050CF00AC101969093B7
:10570000060280930502A5CB8AE090E090931102F7
:10571000809310028FE090E090930F0280930E022E
:1057200081E898E10E94BB1885E090E09093110217
:105730008093100289E190E090930F0280930E0213
:1057400083E798E10E94BB1884E190E090931102F6
:105750008093100288E290E090930F0280930E02F3
:1057600085E698E1BBCF0E94731680910502909167
:1057700006028130910509F472C0BCF4892B09F44A
:1057800043C00E94031520E931E040E050E00E9450
:10579000813020FF0E94FF1888E00E94881688232D
:1057A00009F4AFC088E090E094C88230910509F414
:1057B0007FC0039731F700E420E848E158E070E04B
:1057C00060E08AE090E00E94E7178EE190E090931D
:1057D00011028093100288E390E090930F0280936F
:1057E0000E028BE098E00E94BB188AE090E0909354
:1057F0001102809310028DE290E090930F0280934B
:105800000E028DEF97E028C000E420E843E654E163
:1058100070E060E081EF9FEF0E94E7178FE290E079
:10582000909311028093100288E390E090930F020E
:1058300080930E028AE594E10E94BB188AE090E012
:1058400090931102809310028DE290E090930F02EA
:1058500080930E028CE494E10E94BB1892CF00E486
:1058600020E84AE450E170E060E08CEE9FEF0E9497
:10587000E7178EE190E0909311028093100288E385
:1058800090E090930F0280930E028FE390E10E94CC
:10589000BB188AE090E090931102809310028DE291
:1058A00090E090930F0280930E0281E390E1D4CFB9
:1058B00000E420E84FE25CE070E060E081EF9FEF01
:1058C0000E94E7178FE290E09093110280931002FC
:1058D00088E390E090930F0280930E0288E29CE0B0
:1058E0000E94BB188AE090E090931102809310020E
:1058F0008DE290E090930F0280930E028AE19CE08B
:10590000ABCF84E00E948816882311F40C946D2498
:105910000E946C1985E090E090931D0280931C0218
:10592000B7CA0E94731605E010E0109311020093AD
:1059300010028AE0E82EF12CF0920F02E0920E02A3
:105940008CEE97E00E94BB18F0921102E0921002D8
:1059500094E1E92EF12CF0920F02E0920E028EED0E
:1059600097E00E94BB188FE090E090931102809323
:1059700010028EE190E090930F0280930E0281ED71
:1059800097E00E94BB18F0921102E092100288E2A8
:1059900090E090930F0280930E028BEC97E00E94B0
:1059A000BB1889E190E0909311028093100282E38A
:1059B00090E090930F0280930E0284EC97E00E9497
:1059C000BB1888E00E948816882311F40C946D247B
:1059D00010931D0200931C025BCA8EE190E090932D
:1059E00011028093100288E190E090930F0280935F
:1059F0000E028BEB97E00E94BB1886E090E090933C
:105A000011028093100284E290E090930F02809341
:105A10000E0287EA97E0CECC0730110509F456CA8A
:105A20000E9403156B017C018091F4019091F501B6
:105A3000A091F601B091F701892B8A2B8B2B41F4B1
:105A4000C092F401D092F501E092F601F092F701D4
:105A50008091F4019091F501A091F601B091F701C8
:105A6000A7019601281B390B4A0B5B0BDA01C90110
:105A700086399105A105B10508F405C18090FC01A6
:105A80009090FD01A090FE01B090FF01C501B4010E
:105A90000E9424312AE939E949E15EE30E94C732D4
:105AA0006D837E838F839887C501B4010E94343350
:105AB0002AE939E949E15EE30E94C73269877A87BA
:105AC0008B879C8780E80E949316882309F44BC03B
:105AD00088E00E949316811146C020910501309103
:105AE000060140910701509108016D817E818F81EF
:105AF00098850E94B3302B013C0120910101309127
:105B00000201409103015091040169857A858B85DA
:105B10009C850E94B3304B015C01AC019B01C30129
:105B2000B2010E94C3198823F1F0409205015092FE
:105B30000601609207017092080180920101909223
:105B40000201A0920301B09204016EE170E088ECC2
:105B500090E00E940116C092F401D092F501E0920B
:105B6000F601F092F70180E80E949316882309F469
:105B7000B5CC88E00E949316882309F4AFCC8090BE
:105B8000FC019090FD01A090FE01B090FF01A501E5
:105B90009401BE016F5F7F4FCE0103960E94111CDE
:105BA00060910501709106018091070190910801B3
:105BB0000E949B316B807C80660E771E6091010194
:105BC0007091020180910301909104010E949B3128
:105BD00009811A81060F171FB801C3010E949F197E
:105BE000882309F47BCCB801C3010E94A719823332
:105BF00009F074CCA5019401B801C3010E94941C62
:105C0000882309F46BCC69817A81072E000C880BFC
:105C1000990B0E94D33120910101309102014091F2
:105C20000301509104010E94B3304B015C016B8170
:105C30007C81072E000C880B990B0E94D3319B01AD
:105C4000AC0160910501709106018091070190916E
:105C500008010E94B33060930501709306018093A0
:105C60000701909308018092010190920201A09295
:105C70000301B0920401C092F401D092F501E092C8
:105C8000F601F092F7011D8A1E8A1F8A188E2D8850
:105C90003E8820E030E040E85FE36091FC017091D5
:105CA000FD018091FE019091FF010E94B2306B01D5
:105CB0007C01B101032C000C880B990B0E94D3319D
:105CC00020E030E040E05CE30E94C7329B01AC0181
:105CD0000E94B3309B01AC01C701B6010E94B330F2
